{
  "address": "0xbBB2F192B4D99812245e6e299a64251fB0f7Fd43",
  "abi": [
    {
      "inputs": [
        {
          "internalType": "uint64",
          "name": "subscriptionId",
          "type": "uint64"
        },
        {
          "internalType": "address",
          "name": "vrfCoordinator",
          "type": "address"
        },
        {
          "internalType": "bytes32",
          "name": "_keyHash",
          "type": "bytes32"
        }
      ],
      "stateMutability": "nonpayable",
      "type": "constructor"
    },
    {
      "inputs": [],
      "name": "CoinflipInCourse",
      "type": "error"
    },
    {
      "inputs": [],
      "name": "InsufficientContractFunds",
      "type": "error"
    },
    {
      "inputs": [],
      "name": "NoBetSent",
      "type": "error"
    },
    {
      "inputs": [
        {
          "internalType": "address",
          "name": "have",
          "type": "address"
        },
        {
          "internalType": "address",
          "name": "want",
          "type": "address"
        }
      ],
      "name": "OnlyCoordinatorCanFulfill",
      "type": "error"
    },
    {
      "anonymous": false,
      "inputs": [
        {
          "indexed": false,
          "internalType": "uint256",
          "name": "requestId",
          "type": "uint256"
        },
        {
          "components": [
            {
              "internalType": "address",
              "name": "player",
              "type": "address"
            },
            {
              "internalType": "uint256",
              "name": "bet",
              "type": "uint256"
            },
            {
              "internalType": "bool",
              "name": "didWin",
              "type": "bool"
            }
          ],
          "indexed": false,
          "internalType": "struct Coinflip.Bet",
          "name": "bet",
          "type": "tuple"
        },
        {
          "indexed": false,
          "internalType": "bool",
          "name": "didWin",
          "type": "bool"
        }
      ],
      "name": "CoinflipEnd",
      "type": "event"
    },
    {
      "anonymous": false,
      "inputs": [
        {
          "indexed": false,
          "internalType": "uint256",
          "name": "requestId",
          "type": "uint256"
        }
      ],
      "name": "RandomnessRequested",
      "type": "event"
    },
    {
      "inputs": [],
      "name": "COORDINATOR",
      "outputs": [
        {
          "internalType": "contract VRFCoordinatorV2Interface",
          "name": "",
          "type": "address"
        }
      ],
      "stateMutability": "view",
      "type": "function"
    },
    {
      "inputs": [],
      "name": "getAllBets",
      "outputs": [
        {
          "components": [
            {
              "internalType": "address",
              "name": "player",
              "type": "address"
            },
            {
              "internalType": "uint256",
              "name": "bet",
              "type": "uint256"
            },
            {
              "internalType": "bool",
              "name": "didWin",
              "type": "bool"
            }
          ],
          "internalType": "struct Coinflip.Bet[]",
          "name": "",
          "type": "tuple[]"
        }
      ],
      "stateMutability": "view",
      "type": "function"
    },
    {
      "inputs": [
        {
          "internalType": "uint256",
          "name": "requestId",
          "type": "uint256"
        },
        {
          "internalType": "uint256[]",
          "name": "randomWords",
          "type": "uint256[]"
        }
      ],
      "name": "rawFulfillRandomWords",
      "outputs": [],
      "stateMutability": "nonpayable",
      "type": "function"
    },
    {
      "inputs": [],
      "name": "requestCoinflip",
      "outputs": [],
      "stateMutability": "payable",
      "type": "function"
    },
    {
      "inputs": [
        {
          "internalType": "uint256",
          "name": "",
          "type": "uint256"
        }
      ],
      "name": "requestIdToBet",
      "outputs": [
        {
          "internalType": "address",
          "name": "player",
          "type": "address"
        },
        {
          "internalType": "uint256",
          "name": "bet",
          "type": "uint256"
        },
        {
          "internalType": "bool",
          "name": "didWin",
          "type": "bool"
        }
      ],
      "stateMutability": "view",
      "type": "function"
    },
    {
      "inputs": [
        {
          "internalType": "address",
          "name": "",
          "type": "address"
        }
      ],
      "name": "userToCoinflip",
      "outputs": [
        {
          "internalType": "bool",
          "name": "",
          "type": "bool"
        }
      ],
      "stateMutability": "view",
      "type": "function"
    },
    {
      "stateMutability": "payable",
      "type": "receive"
    }
  ],
  "transactionHash": "0xf655efc8689bb75880e9577af4cabae2038b7d7aaa9be94969ec9189ff0d1dcc",
  "args": [
    "5555",
    "0x6168499c0cFfCaCD319c818142124B7A15E857ab",
    "0xd89b2bf150e3b9e13446986e571fb9cab24b13cea0a43ea20a6049a85cc807cc"
  ],
  "numDeployments": 1,
  "solcInputHash": "edc086686e2bb3f027e77e977e703615",
  "bytecode": "0x60e06040523480156200001157600080fd5b50604051620015b6380380620015b6833981810160405281019062000037919062000125565b818073ffffffffffffffffffffffffffffffffffffffff1660808173ffffffffffffffffffffffffffffffffffffffff1660601b8152505050816000806101000a81548173ffffffffffffffffffffffffffffffffffffffff021916908373ffffffffffffffffffffffffffffffffffffffff1602179055508267ffffffffffffffff1660a08167ffffffffffffffff1660c01b815250508060c081815250505050506200021b565b600081519050620000f181620001cd565b92915050565b6000815190506200010881620001e7565b92915050565b6000815190506200011f8162000201565b92915050565b6000806000606084860312156200013b57600080fd5b60006200014b868287016200010e565b93505060206200015e86828701620000e0565b92505060406200017186828701620000f7565b9150509250925092565b6000620001888262000199565b9050919050565b6000819050919050565b600073ffffffffffffffffffffffffffffffffffffffff82169050919050565b600067ffffffffffffffff82169050919050565b620001d8816200017b565b8114620001e457600080fd5b50565b620001f2816200018f565b8114620001fe57600080fd5b50565b6200020c81620001b9565b81146200021857600080fd5b50565b60805160601c60a05160c01c60c05161135e6200025860003960006105310152600061055201526000818161016c01526101c0015261135e6000f3fe6080604052600436106100595760003560e01c80631fe543e3146100655780633b2bcbf11461008e578063700eae73146100b957806373dbddf4146100e4578063b91a07e7146100ee578063e3419b7a1461012d57610060565b3661006057005b600080fd5b34801561007157600080fd5b5061008c60048036038101906100879190610b96565b61016a565b005b34801561009a57600080fd5b506100a361022a565b6040516100b09190610e9c565b60405180910390f35b3480156100c557600080fd5b506100ce61024e565b6040516100db9190610e0c565b60405180910390f35b6100ec6103e1565b005b3480156100fa57600080fd5b5061011560048036038101906101109190610b44565b610766565b60405161012493929190610dd5565b60405180910390f35b34801561013957600080fd5b50610154600480360381019061014f9190610b1b565b6107bd565b6040516101619190610e2e565b60405180910390f35b7f000000000000000000000000000000000000000000000000000000000000000073ffffffffffffffffffffffffffffffffffffffff163373ffffffffffffffffffffffffffffffffffffffff161461021c57337f00000000000000000000000000000000000000000000000000000000000000006040517f1cf993f4000000000000000000000000000000000000000000000000000000008152600401610213929190610dac565b60405180910390fd5b61022682826107dd565b5050565b60008054906101000a900473ffffffffffffffffffffffffffffffffffffffff1681565b6060600060015467ffffffffffffffff811115610294577f4e487b7100000000000000000000000000000000000000000000000000000000600052604160045260246000fd5b6040519080825280602002602001820160405280156102cd57816020015b6102ba610a0d565b8152602001906001900390816102b25790505b50905060005b6001548110156103d957600360006001836102ee9190610f93565b81526020019081526020016000206040518060600160405290816000820160009054906101000a900473ffffffffffffffffffffffffffffffffffffffff1673ffffffffffffffffffffffffffffffffffffffff1673ffffffffffffffffffffffffffffffffffffffff168152602001600182015481526020016002820160009054906101000a900460ff1615151515815250508282815181106103bb577f4e487b7100000000000000000000000000000000000000000000000000000000600052603260045260246000fd5b602002602001018190525080806103d1906111d5565b9150506102d3565b508091505090565b600034141561041c576040517f226007c100000000000000000000000000000000000000000000000000000000815260040160405180910390fd5b4760023461042a9190610fe9565b6002546104379190610f93565b111561046f576040517fa3fb8f9d00000000000000000000000000000000000000000000000000000000815260040160405180910390fd5b600460003373ffffffffffffffffffffffffffffffffffffffff1673ffffffffffffffffffffffffffffffffffffffff16815260200190815260200160002060009054906101000a900460ff16156104f3576040517f40b2118700000000000000000000000000000000000000000000000000000000815260040160405180910390fd5b60008054906101000a900473ffffffffffffffffffffffffffffffffffffffff1673ffffffffffffffffffffffffffffffffffffffff16635d3b1d307f00000000000000000000000000000000000000000000000000000000000000007f00000000000000000000000000000000000000000000000000000000000000006003620186a060026040518663ffffffff1660e01b8152600401610599959493929190610e49565b602060405180830381600087803b1580156105b357600080fd5b505af11580156105c7573d6000803e3d6000fd5b505050506040513d601f19601f820116820180604052508101906105eb9190610b6d565b60018190555060405180606001604052803373ffffffffffffffffffffffffffffffffffffffff1681526020013481526020016000151581525060036000600154815260200190815260200160002060008201518160000160006101000a81548173ffffffffffffffffffffffffffffffffffffffff021916908373ffffffffffffffffffffffffffffffffffffffff1602179055506020820151816001015560408201518160020160006101000a81548160ff0219169083151502179055509050506001600460003373ffffffffffffffffffffffffffffffffffffffff1673ffffffffffffffffffffffffffffffffffffffff16815260200190815260200160002060006101000a81548160ff0219169083151502179055506002346107139190610fe9565b600260008282546107249190610f93565b925050819055507f9ac10fb18c93d33ad7b0a941897aef048d0f8d30756684e82b4552ba12764d4560015460405161075c9190610eb7565b60405180910390a1565b60036020528060005260406000206000915090508060000160009054906101000a900473ffffffffffffffffffffffffffffffffffffffff16908060010154908060020160009054906101000a900460ff16905083565b60046020528060005260406000206000915054906101000a900460ff1681565b60008060028360008151811061081c577f4e487b7100000000000000000000000000000000000000000000000000000000600052603260045260246000fd5b602002602001015161082e919061121e565b14905060006003600085815260200190815260200160002090508115610926578060000160009054906101000a900473ffffffffffffffffffffffffffffffffffffffff1673ffffffffffffffffffffffffffffffffffffffff166108fc6002836001015461089d9190610fe9565b9081150290604051600060405180830381858888f193505050501580156108c8573d6000803e3d6000fd5b5060018160020160006101000a81548160ff0219169083151502179055507f6645d407d6b62a7abb22d0cd445307b3c6e0ae66026f5a086bbfeee67273b47e84828460405161091993929190610ed2565b60405180910390a1610962565b7f6645d407d6b62a7abb22d0cd445307b3c6e0ae66026f5a086bbfeee67273b47e84828460405161095993929190610ed2565b60405180910390a15b6000600460008360000160009054906101000a900473ffffffffffffffffffffffffffffffffffffffff1673ffffffffffffffffffffffffffffffffffffffff1673ffffffffffffffffffffffffffffffffffffffff16815260200190815260200160002060006101000a81548160ff021916908315150217905550600281600101546109ef9190610fe9565b60026000828254610a009190611043565b9250508190555050505050565b6040518060600160405280600073ffffffffffffffffffffffffffffffffffffffff168152602001600081526020016000151581525090565b6000610a59610a5484610f2e565b610f09565b90508083825260208201905082856020860282011115610a7857600080fd5b60005b85811015610aa85781610a8e8882610af1565b845260208401935060208301925050600181019050610a7b565b5050509392505050565b600081359050610ac1816112fa565b92915050565b600082601f830112610ad857600080fd5b8135610ae8848260208601610a46565b91505092915050565b600081359050610b0081611311565b92915050565b600081519050610b1581611311565b92915050565b600060208284031215610b2d57600080fd5b6000610b3b84828501610ab2565b91505092915050565b600060208284031215610b5657600080fd5b6000610b6484828501610af1565b91505092915050565b600060208284031215610b7f57600080fd5b6000610b8d84828501610b06565b91505092915050565b60008060408385031215610ba957600080fd5b6000610bb785828601610af1565b925050602083013567ffffffffffffffff811115610bd457600080fd5b610be085828601610ac7565b9150509250929050565b6000610bf68383610cba565b60608301905092915050565b610c0b816110ae565b82525050565b610c1a816110ae565b82525050565b6000610c2b82610f6a565b610c358185610f82565b9350610c4083610f5a565b8060005b83811015610c71578151610c588882610bea565b9750610c6383610f75565b925050600181019050610c44565b5085935050505092915050565b610c87816110c0565b82525050565b610c96816110c0565b82525050565b610ca5816110cc565b82525050565b610cb481611132565b82525050565b606082016000820151610cd06000850182610c02565b506020820151610ce36020850182610d70565b506040820151610cf66040850182610c7e565b50505050565b606082016000808301549050610d1181611156565b610d1e6000860182610c02565b5060018301549050610d2f8161118a565b610d3c6020860182610d70565b5060028301549050610d4d81611170565b610d5a6040860182610c7e565b5050505050565b610d6a816110d6565b82525050565b610d7981611104565b82525050565b610d8881611104565b82525050565b610d978161110e565b82525050565b610da68161111e565b82525050565b6000604082019050610dc16000830185610c11565b610dce6020830184610c11565b9392505050565b6000606082019050610dea6000830186610c11565b610df76020830185610d7f565b610e046040830184610c8d565b949350505050565b60006020820190508181036000830152610e268184610c20565b905092915050565b6000602082019050610e436000830184610c8d565b92915050565b600060a082019050610e5e6000830188610c9c565b610e6b6020830187610d9d565b610e786040830186610d61565b610e856060830185610d8e565b610e926080830184610d8e565b9695505050505050565b6000602082019050610eb16000830184610cab565b92915050565b6000602082019050610ecc6000830184610d7f565b92915050565b600060a082019050610ee76000830186610d7f565b610ef46020830185610cfc565b610f016080830184610c8d565b949350505050565b6000610f13610f24565b9050610f1f82826111a4565b919050565b6000604051905090565b600067ffffffffffffffff821115610f4957610f486112ad565b5b602082029050602081019050919050565b6000819050602082019050919050565b600081519050919050565b6000602082019050919050565b600082825260208201905092915050565b6000610f9e82611104565b9150610fa983611104565b9250827fffffffffffffffffffffffffffffffffffffffffffffffffffffffffffffffff03821115610fde57610fdd61124f565b5b828201905092915050565b6000610ff482611104565b9150610fff83611104565b9250817fffffffffffffffffffffffffffffffffffffffffffffffffffffffffffffffff04831182151516156110385761103761124f565b5b828202905092915050565b600061104e82611104565b915061105983611104565b92508282101561106c5761106b61124f565b5b828203905092915050565b600073ffffffffffffffffffffffffffffffffffffffff82169050919050565b600060ff82169050919050565b6000819050919050565b60006110b9826110e4565b9050919050565b60008115159050919050565b6000819050919050565b600061ffff82169050919050565b600073ffffffffffffffffffffffffffffffffffffffff82169050919050565b6000819050919050565b600063ffffffff82169050919050565b600067ffffffffffffffff82169050919050565b600061113d82611144565b9050919050565b600061114f826110e4565b9050919050565b6000611169611164836112ed565b611077565b9050919050565b600061118361117e836112ed565b611097565b9050919050565b600061119d611198836112ed565b6110a4565b9050919050565b6111ad826112dc565b810181811067ffffffffffffffff821117156111cc576111cb6112ad565b5b80604052505050565b60006111e082611104565b91507fffffffffffffffffffffffffffffffffffffffffffffffffffffffffffffffff8214156112135761121261124f565b5b600182019050919050565b600061122982611104565b915061123483611104565b9250826112445761124361127e565b5b828206905092915050565b7f4e487b7100000000000000000000000000000000000000000000000000000000600052601160045260246000fd5b7f4e487b7100000000000000000000000000000000000000000000000000000000600052601260045260246000fd5b7f4e487b7100000000000000000000000000000000000000000000000000000000600052604160045260246000fd5b6000601f19601f8301169050919050565b60008160001c9050919050565b611303816110ae565b811461130e57600080fd5b50565b61131a81611104565b811461132557600080fd5b5056fea2646970667358221220c56b52f7e8792ce9f946c7259ee81df2c3206aeed298f203e2be6389b202c7f064736f6c63430008040033",
  "devdoc": {
    "kind": "dev",
    "methods": {},
    "version": 1
  },
  "userdoc": {
    "kind": "user",
    "methods": {},
    "version": 1
  },
  "storageLayout": {
    "storage": [
      {
        "astId": 161,
        "contract": "contracts/Coinflip.sol:Coinflip",
        "label": "COORDINATOR",
        "offset": 0,
        "slot": "0",
        "type": "t_contract(VRFCoordinatorV2Interface)146"
      },
      {
        "astId": 172,
        "contract": "contracts/Coinflip.sol:Coinflip",
        "label": "s_requestId",
        "offset": 0,
        "slot": "1",
        "type": "t_uint256"
      },
      {
        "astId": 185,
        "contract": "contracts/Coinflip.sol:Coinflip",
        "label": "ethToSend",
        "offset": 0,
        "slot": "2",
        "type": "t_uint256"
      },
      {
        "astId": 190,
        "contract": "contracts/Coinflip.sol:Coinflip",
        "label": "requestIdToBet",
        "offset": 0,
        "slot": "3",
        "type": "t_mapping(t_uint256,t_struct(Bet)168_storage)"
      },
      {
        "astId": 194,
        "contract": "contracts/Coinflip.sol:Coinflip",
        "label": "userToCoinflip",
        "offset": 0,
        "slot": "4",
        "type": "t_mapping(t_address,t_bool)"
      }
    ],
    "types": {
      "t_address": {
        "encoding": "inplace",
        "label": "address",
        "numberOfBytes": "20"
      },
      "t_bool": {
        "encoding": "inplace",
        "label": "bool",
        "numberOfBytes": "1"
      },
      "t_contract(VRFCoordinatorV2Interface)146": {
        "encoding": "inplace",
        "label": "contract VRFCoordinatorV2Interface",
        "numberOfBytes": "20"
      },
      "t_mapping(t_address,t_bool)": {
        "encoding": "mapping",
        "key": "t_address",
        "label": "mapping(address => bool)",
        "numberOfBytes": "32",
        "value": "t_bool"
      },
      "t_mapping(t_uint256,t_struct(Bet)168_storage)": {
        "encoding": "mapping",
        "key": "t_uint256",
        "label": "mapping(uint256 => struct Coinflip.Bet)",
        "numberOfBytes": "32",
        "value": "t_struct(Bet)168_storage"
      },
      "t_struct(Bet)168_storage": {
        "encoding": "inplace",
        "label": "struct Coinflip.Bet",
        "members": [
          {
            "astId": 163,
            "contract": "contracts/Coinflip.sol:Coinflip",
            "label": "player",
            "offset": 0,
            "slot": "0",
            "type": "t_address"
          },
          {
            "astId": 165,
            "contract": "contracts/Coinflip.sol:Coinflip",
            "label": "bet",
            "offset": 0,
            "slot": "1",
            "type": "t_uint256"
          },
          {
            "astId": 167,
            "contract": "contracts/Coinflip.sol:Coinflip",
            "label": "didWin",
            "offset": 0,
            "slot": "2",
            "type": "t_bool"
          }
        ],
        "numberOfBytes": "96"
      },
      "t_uint256": {
        "encoding": "inplace",
        "label": "uint256",
        "numberOfBytes": "32"
      }
    }
  }
}