{
  "address": "0x427f369D1fC82712c343Bf68260ce783Cce1957A",
  "abi": [
    {
      "inputs": [
        {
          "internalType": "uint64",
          "name": "subscriptionId",
          "type": "uint64"
        },
        {
          "internalType": "address",
          "name": "vrfCoordinator",
          "type": "address"
        },
        {
          "internalType": "bytes32",
          "name": "_keyHash",
          "type": "bytes32"
        }
      ],
      "stateMutability": "nonpayable",
      "type": "constructor"
    },
    {
      "inputs": [],
      "name": "CoinflipInCourse",
      "type": "error"
    },
    {
      "inputs": [],
      "name": "InsufficientContractFunds",
      "type": "error"
    },
    {
      "inputs": [],
      "name": "NoBetSent",
      "type": "error"
    },
    {
      "inputs": [
        {
          "internalType": "address",
          "name": "have",
          "type": "address"
        },
        {
          "internalType": "address",
          "name": "want",
          "type": "address"
        }
      ],
      "name": "OnlyCoordinatorCanFulfill",
      "type": "error"
    },
    {
      "anonymous": false,
      "inputs": [
        {
          "indexed": false,
          "internalType": "uint256",
          "name": "requestId",
          "type": "uint256"
        },
        {
          "components": [
            {
              "internalType": "address",
              "name": "player",
              "type": "address"
            },
            {
              "internalType": "uint256",
              "name": "bet",
              "type": "uint256"
            },
            {
              "internalType": "bool",
              "name": "didWin",
              "type": "bool"
            }
          ],
          "indexed": false,
          "internalType": "struct Coinflip.Bet",
          "name": "bet",
          "type": "tuple"
        },
        {
          "indexed": false,
          "internalType": "bool",
          "name": "didWin",
          "type": "bool"
        }
      ],
      "name": "CoinflipEnd",
      "type": "event"
    },
    {
      "anonymous": false,
      "inputs": [
        {
          "indexed": false,
          "internalType": "uint256",
          "name": "requestId",
          "type": "uint256"
        }
      ],
      "name": "RandomnessRequested",
      "type": "event"
    },
    {
      "inputs": [],
      "name": "COORDINATOR",
      "outputs": [
        {
          "internalType": "contract VRFCoordinatorV2Interface",
          "name": "",
          "type": "address"
        }
      ],
      "stateMutability": "view",
      "type": "function"
    },
    {
      "inputs": [],
      "name": "getAllBets",
      "outputs": [
        {
          "components": [
            {
              "internalType": "address",
              "name": "player",
              "type": "address"
            },
            {
              "internalType": "uint256",
              "name": "bet",
              "type": "uint256"
            },
            {
              "internalType": "bool",
              "name": "didWin",
              "type": "bool"
            }
          ],
          "internalType": "struct Coinflip.Bet[]",
          "name": "",
          "type": "tuple[]"
        }
      ],
      "stateMutability": "view",
      "type": "function"
    },
    {
      "inputs": [
        {
          "internalType": "uint256",
          "name": "requestId",
          "type": "uint256"
        },
        {
          "internalType": "uint256[]",
          "name": "randomWords",
          "type": "uint256[]"
        }
      ],
      "name": "rawFulfillRandomWords",
      "outputs": [],
      "stateMutability": "nonpayable",
      "type": "function"
    },
    {
      "inputs": [],
      "name": "requestCoinflip",
      "outputs": [],
      "stateMutability": "payable",
      "type": "function"
    },
    {
      "inputs": [
        {
          "internalType": "uint256",
          "name": "",
          "type": "uint256"
        }
      ],
      "name": "requestIdToBet",
      "outputs": [
        {
          "internalType": "address",
          "name": "player",
          "type": "address"
        },
        {
          "internalType": "uint256",
          "name": "bet",
          "type": "uint256"
        },
        {
          "internalType": "bool",
          "name": "didWin",
          "type": "bool"
        }
      ],
      "stateMutability": "view",
      "type": "function"
    },
    {
      "stateMutability": "payable",
      "type": "receive"
    }
  ],
  "transactionHash": "0x6f79d9acc42ea53a11ca9c45ecc72c4fa30377f6a09632871ba964971cd6f45d",
  "args": [
    5555,
    "0x6168499c0cFfCaCD319c818142124B7A15E857ab",
    "0xd89b2bf150e3b9e13446986e571fb9cab24b13cea0a43ea20a6049a85cc807cc"
  ],
  "numDeployments": 8,
  "solcInputHash": "f6bf3d6ae0fce69611f209ac563a6950",
  "bytecode": "0x60e06040523480156200001157600080fd5b50604051620014de380380620014de833981810160405281019062000037919062000125565b818073ffffffffffffffffffffffffffffffffffffffff1660808173ffffffffffffffffffffffffffffffffffffffff1660601b8152505050816000806101000a81548173ffffffffffffffffffffffffffffffffffffffff021916908373ffffffffffffffffffffffffffffffffffffffff1602179055508267ffffffffffffffff1660a08167ffffffffffffffff1660c01b815250508060c081815250505050506200021b565b600081519050620000f181620001cd565b92915050565b6000815190506200010881620001e7565b92915050565b6000815190506200011f8162000201565b92915050565b6000806000606084860312156200013b57600080fd5b60006200014b868287016200010e565b93505060206200015e86828701620000e0565b92505060406200017186828701620000f7565b9150509250925092565b6000620001888262000199565b9050919050565b6000819050919050565b600073ffffffffffffffffffffffffffffffffffffffff82169050919050565b600067ffffffffffffffff82169050919050565b620001d8816200017b565b8114620001e457600080fd5b50565b620001f2816200018f565b8114620001fe57600080fd5b50565b6200020c81620001b9565b81146200021857600080fd5b50565b60805160601c60a05160c01c60c0516112866200025860003960006104e90152600061050a015260008181610124015261017801526112866000f3fe60806040526004361061004e5760003560e01c80631fe543e31461005a5780633b2bcbf114610083578063700eae73146100ae57806373dbddf4146100d9578063b91a07e7146100e357610055565b3661005557005b600080fd5b34801561006657600080fd5b50610081600480360381019061007c9190610af0565b610122565b005b34801561008f57600080fd5b506100986101e2565b6040516100a59190610ddb565b60405180910390f35b3480156100ba57600080fd5b506100c3610206565b6040516100d09190610d66565b60405180910390f35b6100e1610399565b005b3480156100ef57600080fd5b5061010a60048036038101906101059190610a9e565b61071e565b60405161011993929190610d2f565b60405180910390f35b7f000000000000000000000000000000000000000000000000000000000000000073ffffffffffffffffffffffffffffffffffffffff163373ffffffffffffffffffffffffffffffffffffffff16146101d457337f00000000000000000000000000000000000000000000000000000000000000006040517f1cf993f40000000000000000000000000000000000000000000000000000000081526004016101cb929190610d06565b60405180910390fd5b6101de8282610775565b5050565b60008054906101000a900473ffffffffffffffffffffffffffffffffffffffff1681565b6060600060015467ffffffffffffffff81111561024c577f4e487b7100000000000000000000000000000000000000000000000000000000600052604160045260246000fd5b60405190808252806020026020018201604052801561028557816020015b6102726109a5565b81526020019060019003908161026a5790505b50905060005b60015481101561039157600360006001836102a69190610ed2565b81526020019081526020016000206040518060600160405290816000820160009054906101000a900473ffffffffffffffffffffffffffffffffffffffff1673ffffffffffffffffffffffffffffffffffffffff1673ffffffffffffffffffffffffffffffffffffffff168152602001600182015481526020016002820160009054906101000a900460ff161515151581525050828281518110610373577f4e487b7100000000000000000000000000000000000000000000000000000000600052603260045260246000fd5b6020026020010181905250808061038990611114565b91505061028b565b508091505090565b60003414156103d4576040517f226007c100000000000000000000000000000000000000000000000000000000815260040160405180910390fd5b476002346103e29190610f28565b6002546103ef9190610ed2565b1115610427576040517fa3fb8f9d00000000000000000000000000000000000000000000000000000000815260040160405180910390fd5b600460003373ffffffffffffffffffffffffffffffffffffffff1673ffffffffffffffffffffffffffffffffffffffff16815260200190815260200160002060009054906101000a900460ff16156104ab576040517f40b2118700000000000000000000000000000000000000000000000000000000815260040160405180910390fd5b60008054906101000a900473ffffffffffffffffffffffffffffffffffffffff1673ffffffffffffffffffffffffffffffffffffffff16635d3b1d307f00000000000000000000000000000000000000000000000000000000000000007f00000000000000000000000000000000000000000000000000000000000000006003620186a060026040518663ffffffff1660e01b8152600401610551959493929190610d88565b602060405180830381600087803b15801561056b57600080fd5b505af115801561057f573d6000803e3d6000fd5b505050506040513d601f19601f820116820180604052508101906105a39190610ac7565b60018190555060405180606001604052803373ffffffffffffffffffffffffffffffffffffffff1681526020013481526020016000151581525060036000600154815260200190815260200160002060008201518160000160006101000a81548173ffffffffffffffffffffffffffffffffffffffff021916908373ffffffffffffffffffffffffffffffffffffffff1602179055506020820151816001015560408201518160020160006101000a81548160ff0219169083151502179055509050506001600460003373ffffffffffffffffffffffffffffffffffffffff1673ffffffffffffffffffffffffffffffffffffffff16815260200190815260200160002060006101000a81548160ff0219169083151502179055506002346106cb9190610f28565b600260008282546106dc9190610ed2565b925050819055507f9ac10fb18c93d33ad7b0a941897aef048d0f8d30756684e82b4552ba12764d456001546040516107149190610df6565b60405180910390a1565b60036020528060005260406000206000915090508060000160009054906101000a900473ffffffffffffffffffffffffffffffffffffffff16908060010154908060020160009054906101000a900460ff16905083565b6000806002836000815181106107b4577f4e487b7100000000000000000000000000000000000000000000000000000000600052603260045260246000fd5b60200260200101516107c6919061115d565b149050600060036000858152602001908152602001600020905081156108be578060000160009054906101000a900473ffffffffffffffffffffffffffffffffffffffff1673ffffffffffffffffffffffffffffffffffffffff166108fc600283600101546108359190610f28565b9081150290604051600060405180830381858888f19350505050158015610860573d6000803e3d6000fd5b5060018160020160006101000a81548160ff0219169083151502179055507f6645d407d6b62a7abb22d0cd445307b3c6e0ae66026f5a086bbfeee67273b47e8482846040516108b193929190610e11565b60405180910390a16108fa565b7f6645d407d6b62a7abb22d0cd445307b3c6e0ae66026f5a086bbfeee67273b47e8482846040516108f193929190610e11565b60405180910390a15b6000600460008360000160009054906101000a900473ffffffffffffffffffffffffffffffffffffffff1673ffffffffffffffffffffffffffffffffffffffff1673ffffffffffffffffffffffffffffffffffffffff16815260200190815260200160002060006101000a81548160ff021916908315150217905550600281600101546109879190610f28565b600260008282546109989190610f82565b9250508190555050505050565b6040518060600160405280600073ffffffffffffffffffffffffffffffffffffffff168152602001600081526020016000151581525090565b60006109f16109ec84610e6d565b610e48565b90508083825260208201905082856020860282011115610a1057600080fd5b60005b85811015610a405781610a268882610a74565b845260208401935060208301925050600181019050610a13565b5050509392505050565b600082601f830112610a5b57600080fd5b8135610a6b8482602086016109de565b91505092915050565b600081359050610a8381611239565b92915050565b600081519050610a9881611239565b92915050565b600060208284031215610ab057600080fd5b6000610abe84828501610a74565b91505092915050565b600060208284031215610ad957600080fd5b6000610ae784828501610a89565b91505092915050565b60008060408385031215610b0357600080fd5b6000610b1185828601610a74565b925050602083013567ffffffffffffffff811115610b2e57600080fd5b610b3a85828601610a4a565b9150509250929050565b6000610b508383610c14565b60608301905092915050565b610b6581610fed565b82525050565b610b7481610fed565b82525050565b6000610b8582610ea9565b610b8f8185610ec1565b9350610b9a83610e99565b8060005b83811015610bcb578151610bb28882610b44565b9750610bbd83610eb4565b925050600181019050610b9e565b5085935050505092915050565b610be181610fff565b82525050565b610bf081610fff565b82525050565b610bff8161100b565b82525050565b610c0e81611071565b82525050565b606082016000820151610c2a6000850182610b5c565b506020820151610c3d6020850182610cca565b506040820151610c506040850182610bd8565b50505050565b606082016000808301549050610c6b81611095565b610c786000860182610b5c565b5060018301549050610c89816110c9565b610c966020860182610cca565b5060028301549050610ca7816110af565b610cb46040860182610bd8565b5050505050565b610cc481611015565b82525050565b610cd381611043565b82525050565b610ce281611043565b82525050565b610cf18161104d565b82525050565b610d008161105d565b82525050565b6000604082019050610d1b6000830185610b6b565b610d286020830184610b6b565b9392505050565b6000606082019050610d446000830186610b6b565b610d516020830185610cd9565b610d5e6040830184610be7565b949350505050565b60006020820190508181036000830152610d808184610b7a565b905092915050565b600060a082019050610d9d6000830188610bf6565b610daa6020830187610cf7565b610db76040830186610cbb565b610dc46060830185610ce8565b610dd16080830184610ce8565b9695505050505050565b6000602082019050610df06000830184610c05565b92915050565b6000602082019050610e0b6000830184610cd9565b92915050565b600060a082019050610e266000830186610cd9565b610e336020830185610c56565b610e406080830184610be7565b949350505050565b6000610e52610e63565b9050610e5e82826110e3565b919050565b6000604051905090565b600067ffffffffffffffff821115610e8857610e876111ec565b5b602082029050602081019050919050565b6000819050602082019050919050565b600081519050919050565b6000602082019050919050565b600082825260208201905092915050565b6000610edd82611043565b9150610ee883611043565b9250827fffffffffffffffffffffffffffffffffffffffffffffffffffffffffffffffff03821115610f1d57610f1c61118e565b5b828201905092915050565b6000610f3382611043565b9150610f3e83611043565b9250817fffffffffffffffffffffffffffffffffffffffffffffffffffffffffffffffff0483118215151615610f7757610f7661118e565b5b828202905092915050565b6000610f8d82611043565b9150610f9883611043565b925082821015610fab57610faa61118e565b5b828203905092915050565b600073ffffffffffffffffffffffffffffffffffffffff82169050919050565b600060ff82169050919050565b6000819050919050565b6000610ff882611023565b9050919050565b60008115159050919050565b6000819050919050565b600061ffff82169050919050565b600073ffffffffffffffffffffffffffffffffffffffff82169050919050565b6000819050919050565b600063ffffffff82169050919050565b600067ffffffffffffffff82169050919050565b600061107c82611083565b9050919050565b600061108e82611023565b9050919050565b60006110a86110a38361122c565b610fb6565b9050919050565b60006110c26110bd8361122c565b610fd6565b9050919050565b60006110dc6110d78361122c565b610fe3565b9050919050565b6110ec8261121b565b810181811067ffffffffffffffff8211171561110b5761110a6111ec565b5b80604052505050565b600061111f82611043565b91507fffffffffffffffffffffffffffffffffffffffffffffffffffffffffffffffff8214156111525761115161118e565b5b600182019050919050565b600061116882611043565b915061117383611043565b925082611183576111826111bd565b5b828206905092915050565b7f4e487b7100000000000000000000000000000000000000000000000000000000600052601160045260246000fd5b7f4e487b7100000000000000000000000000000000000000000000000000000000600052601260045260246000fd5b7f4e487b7100000000000000000000000000000000000000000000000000000000600052604160045260246000fd5b6000601f19601f8301169050919050565b60008160001c9050919050565b61124281611043565b811461124d57600080fd5b5056fea26469706673582212204f4f5f287a17f06957f9a2e3920af4ab09d6c7caa55cb9265c77867fe5e31b7c64736f6c63430008040033",
  "devdoc": {
    "kind": "dev",
    "methods": {},
    "version": 1
  },
  "userdoc": {
    "kind": "user",
    "methods": {},
    "version": 1
  },
  "storageLayout": {
    "storage": [
      {
        "astId": 161,
        "contract": "contracts/Coinflip.sol:Coinflip",
        "label": "COORDINATOR",
        "offset": 0,
        "slot": "0",
        "type": "t_contract(VRFCoordinatorV2Interface)146"
      },
      {
        "astId": 172,
        "contract": "contracts/Coinflip.sol:Coinflip",
        "label": "s_requestId",
        "offset": 0,
        "slot": "1",
        "type": "t_uint256"
      },
      {
        "astId": 185,
        "contract": "contracts/Coinflip.sol:Coinflip",
        "label": "ethToSend",
        "offset": 0,
        "slot": "2",
        "type": "t_uint256"
      },
      {
        "astId": 190,
        "contract": "contracts/Coinflip.sol:Coinflip",
        "label": "requestIdToBet",
        "offset": 0,
        "slot": "3",
        "type": "t_mapping(t_uint256,t_struct(Bet)168_storage)"
      },
      {
        "astId": 194,
        "contract": "contracts/Coinflip.sol:Coinflip",
        "label": "userToCoinflip",
        "offset": 0,
        "slot": "4",
        "type": "t_mapping(t_address,t_bool)"
      }
    ],
    "types": {
      "t_address": {
        "encoding": "inplace",
        "label": "address",
        "numberOfBytes": "20"
      },
      "t_bool": {
        "encoding": "inplace",
        "label": "bool",
        "numberOfBytes": "1"
      },
      "t_contract(VRFCoordinatorV2Interface)146": {
        "encoding": "inplace",
        "label": "contract VRFCoordinatorV2Interface",
        "numberOfBytes": "20"
      },
      "t_mapping(t_address,t_bool)": {
        "encoding": "mapping",
        "key": "t_address",
        "label": "mapping(address => bool)",
        "numberOfBytes": "32",
        "value": "t_bool"
      },
      "t_mapping(t_uint256,t_struct(Bet)168_storage)": {
        "encoding": "mapping",
        "key": "t_uint256",
        "label": "mapping(uint256 => struct Coinflip.Bet)",
        "numberOfBytes": "32",
        "value": "t_struct(Bet)168_storage"
      },
      "t_struct(Bet)168_storage": {
        "encoding": "inplace",
        "label": "struct Coinflip.Bet",
        "members": [
          {
            "astId": 163,
            "contract": "contracts/Coinflip.sol:Coinflip",
            "label": "player",
            "offset": 0,
            "slot": "0",
            "type": "t_address"
          },
          {
            "astId": 165,
            "contract": "contracts/Coinflip.sol:Coinflip",
            "label": "bet",
            "offset": 0,
            "slot": "1",
            "type": "t_uint256"
          },
          {
            "astId": 167,
            "contract": "contracts/Coinflip.sol:Coinflip",
            "label": "didWin",
            "offset": 0,
            "slot": "2",
            "type": "t_bool"
          }
        ],
        "numberOfBytes": "96"
      },
      "t_uint256": {
        "encoding": "inplace",
        "label": "uint256",
        "numberOfBytes": "32"
      }
    }
  }
}